:100000000C9463000C948B000C948B000C9494065D
:100010000C9494060C9494060C948B000C948B0016
:100020000C948B000C94C8070C948B000C940C0758
:100030000C948B000C948B000C948B000C948B0014
:100040000C944A060C948B000C9418060C94F20540
:100050000C948B000C948B000C948B000C948B00F4
:100060000C948B000C948B000000000024002700EF
:100070002A0000000008000201000003040700003D
:1000800000000000000000000000230026002900FE
:1000900000000000250028002B00040404040404D0
:1000A0000404020202020202030303030303010227
:1000B00004081020408001020408102001020408F6
:1000C0001020AF080A0D11241FBECFEFD8E0DEBF0D
:1000D000CDBF11E0A0E0B1E0E6EDF5E202C0059091
:1000E0000D92AC3EB107D9F723E0ACEEB1E001C010
:1000F0001D92A83EB207E1F710E0C2E6D0E004C0CE
:100100002197FE010E940010C136D107C9F70E9455
:1001100079090C94DE120C9400008F929F92AF929A
:10012000BF92FF920F931F93CF93DF93F090E5035D
:100130002BE02F1508F44CC02091E70308E512E0EE
:10014000021B110927FD1395000F111F000F111F2E
:100150002091E603C8E8D0E0C21BD10927FDD39562
:10016000CC0FDD1FCC0FDD1F4E010D2E000CAA0899
:10017000BB089801012E000C440B550B28193909B6
:100180004A095B09DC010E94500D24EB30E040E09D
:1001900050E00E94260D820E931EA41EB51E8C16E2
:1001A0009D062CF0E801801691060CF4E4012297DC
:1001B000CC0FDD1F2FB7F8948F2D90E0FC01EE0FD0
:1001C000FF1FE80FF91FEF55FC4FD283C1832FBFEC
:1001D000DF91CF911F910F91FF90BF90AF909F90B3
:1001E0008F900895AF92BF92CF92DF92EF92FF92DD
:1001F0000F931F93CF93DF936C017B018B01040F4F
:10020000151FEB015E01AE18BF08C017D10759F0EA
:100210006991D601ED91FC910190F081E02DC6012C
:100220000995892B79F7C501DF91CF911F910F9126
:10023000FF90EF90DF90CF90BF90AF900895FC01BA
:10024000538D448D252F30E0842F90E0821B930B3B
:10025000541710F0CF96089501970895FC01918DE1
:10026000828D981761F0A28DAE0FBF2FB11D5D96E4
:100270008C91928D9F5F9F73928F90E008958FEF86
:100280009FEF0895FC01918D828D981731F0828D3A
:10029000E80FF11D858D90E008958FEF9FEF089591
:1002A000FC01918D228D892F90E0805C9F4F821BF5
:1002B00091098F739927089584E093E00E9450017B
:1002C00021E0892B09F420E0822F089580E090E05E
:1002D000892B29F00E945C0181110C940000089583
:1002E000FC01A48DA80FB92FB11DA35ABF4F2C91AB
:1002F000848D90E001968F739927848FA689B789A2
:100300002C93A089B1898C91837080648C93938D98
:10031000848D981306C00288F389E02D80818F7D3B
:1003200080830895EF92FF920F931F93CF93DF93F3
:10033000EC0181E0888F9B8D8C8D98131AC0E88921
:10034000F989808185FF15C09FB7F894EE89FF89F0
:100350006083E889F98980818370806480839FBF8E
:1003600081E090E0DF91CF911F910F91FF90EF908E
:100370000895F62E0B8D10E00F5F1F4F0F7311279E
:10038000E02E8C8D8E110CC00FB607FCFACFE889D9
:10039000F989808185FFF5CFCE010E947001F1CFF0
:1003A000EB8DEC0FFD2FF11DE35AFF4FF0829FB74D
:1003B000F8940B8FEA89FB8980818062CFCFCF933D
:1003C000DF93EC01888D8823B9F0AA89BB89E8897D
:1003D000F9898C9185FD03C0808186FD0DC00FB623
:1003E00007FCF7CF8C9185FFF2CF808185FFEDCFA1
:1003F000CE010E947001E9CFDF91CF910895833043
:1004000081F028F4813099F08230A9F00895873086
:10041000A9F08830C9F08430B1F4809180008F7DDC
:1004200003C0809180008F7780938000089584B509
:100430008F7784BD089584B58F7DFBCF8091B00008
:100440008F778093B00008958091B0008F7DF9CFB1
:10045000CF93DF93282F30E0F901EE58FF4F8491BE
:10046000F901E255FF4FD491F901E656FF4FC491CF
:10047000CC23A1F081110E94FF01EC2FF0E0EE0FE0
:10048000FF1FEA57FF4FA591B491EC91ED2381E056
:1004900090E009F480E0DF91CF91089580E090E052
:1004A000FACF1F93CF93DF93282F30E0F901EE5856
:1004B000FF4F8491F901E255FF4FD491F901E656BF
:1004C000FF4FC491CC23A9F0162F81110E94FF0188
:1004D000EC2FF0E0EE0FFF1FE057FF4FA591B49116
:1004E0008FB7F894EC91111108C0D095DE23DC93FE
:1004F0008FBFDF91CF911F910895DE2BF8CFCF935F
:10050000DF9390E0FC01E255FF4F249186569F4F08
:10051000FC0184918823D1F090E0880F991FFC01A1
:10052000E859FF4FA591B491FC01E057FF4FC591E9
:10053000D49161110EC09FB7F8948C91E22FE09591
:100540008E238C932881E223E8839FBFDF91CF9194
:1005500008958FB7F894EC91E22BEC938FBFF6CF10
:100560008091E5038C3008F051C061E080E10E9489
:100570007F028091E503282F30E0F901EE0FFF1F85
:10058000E20FF31FEF55FC4F9081907C90619083B8
:100590001092E6031092E7032CE0622F0E94CC0F2A
:1005A000829FB001112430E020E0AB01420F531FC5
:1005B000FA01EE0FFF1FE40FF51FEF55FC4F90817E
:1005C00096FD16C02F5F3F4F2C30310571F781111A
:1005D0000FC01092800082E080938100109285000D
:1005E00010928400B19A80916F00826080936F00B6
:1005F000E091E5038E2F90E0FC01EE0FFF1FE80F66
:10060000F91FEF55FC4F8081806480838091E50362
:1006100008951F93CF93DF93D82FC62F172F61E034
:100620000E947F02ED2FF0E0EE58FF4FE491E3309F
:1006300059F158F4E130D9F0E23009F160E08D2F42
:10064000DF91CF911F910C945102E73049F1E830CE
:1006500079F1E43099F78091800080628093800086
:100660008C2F912F90938B0080938A0004C084B5C7
:10067000806884BDC7BDDF91CF911F91089584B577
:10068000806284BDC8BDF7CF809180008068809370
:1006900080008C2F912F9093890080938800EBCF5E
:1006A0008091B00080688093B000C093B300E3CF26
:1006B0008091B00080628093B000C093B400DBCF23
:1006C0003FB7F8948091D0029091D102A091D202CC
:1006D000B091D30226B5A89B05C02F3F19F0019613
:1006E000A11DB11D3FBFBA2FA92F982F8827BC018C
:1006F000CD01620F711D811D911D42E0660F771FB4
:10070000881F991F4A95D1F708958F929F92AF92B3
:10071000BF92CF92DF92EF92FF926B017C010E9419
:1007200060034B015C01C114D104E104F104B9F090
:100730000E946003681979098A099B09683E734021
:100740008105910580F321E0C21AD108E108F10882
:1007500088EE880E83E0981EA11CB11CE4CFFF90A8
:10076000EF90DF90CF90BF90AF909F908F900895C3
:100770002091D6023091D7022817390771F4909151
:10078000D4028091D502981741F0E091D402F0E0B4
:10079000E557FD4F808190E008958FEF9FEF08951A
:1007A0000895EF92FF920F931F93CF93DF93DC0195
:1007B0005C96ED90FC905D97E114F10479F481E092
:1007C00090E013969C938E93129790E080E0DF91D7
:1007D000CF911F910F91FF90EF9008955196ED9159
:1007E000FC91529750968C915097982F90950FB7F7
:1007F0005E962C915E97122F127021FD6095F894F1
:100800002081112319F1282B2083E7012197F1F78B
:1008100028E0462F50E0308160FF1AC0382B30832B
:10082000E7012197F1F7BA0175956795215089F78E
:10083000112381F08081892380830FBF5C968D9185
:100840009C910197F1F781E090E0C1CF2923DCCFA3
:100850003923E5CF9081892BEFCF2091D6023091BB
:10086000D7022817390771F48091D5022091D4025C
:1008700090E0805C9F4F821B910960E470E00E94D1
:10088000D80F089590E080E008952091D60230912D
:10089000D70228173907B9F49091D4028091D50274
:1008A000981789F0E091D402F0E0E557FD4F808180
:1008B0002091D40230E02F5F3F4F2F7333272093D6
:1008C000D40290E008958FEF9FEF089590E080E0CC
:1008D000089560E086E00E94510261E085E00C949A
:1008E000510261E085E00E94510261E086E00C94D3
:1008F0005102BC018BE00C94090360E088E00E9487
:10090000510261E089E00C94510261E088E00E94AC
:10091000510261E089E00C945102BC0183E00C9427
:100920000903FC0101900020E9F73197AF01481B52
:10093000590BBC0184E093E00C94F2008F929F92DB
:10094000AF92BF920F931F93CF93DF93CDB7DEB7D4
:10095000A1970FB6F894DEBF0FBECDBF19A24230EB
:1009600008F44AE08E010F5D1F4F842E912CB12CAC
:10097000A12CA50194010E94580DE62FB901CA01CE
:10098000EA30F4F4E05DD801EE938D01232B242BA3
:10099000252B79F790E080E0109719F0CD010E94A7
:1009A0009104A1960FB6F894DEBF0FBECDBFDF91C4
:1009B000CF911F910F91BF90AF909F908F9008950E
:1009C000E95CE1CFCF93DF930E949104EC0184E2D4
:1009D00091E00E9491048C0F9D1FDF91CF910895AB
:1009E0004F925F926F927F928F929F92AF92BF923F
:1009F000CF92DF92EF92FF920F931F93CF936B01F1
:100A00007C01742EAC019B010E94C70F882399F0D2
:100A100087E291E0CF911F910F91FF90EF90DF90CF
:100A2000CF90BF90AF909F908F907F906F905F908E
:100A30004F900C94910446015701E894B7F82FEFBA
:100A40003FEF4FE75FE7C501B4010E94C70F811177
:100A50000DC02FEF3FEF4FE75FE7C501B4010E94E4
:100A6000F60D18161CF48BE291E0D4CF2FEF3FEF78
:100A70004FE75FE4C701B6010E94550F18161CF43A
:100A80008FE291E0C7CF2FEF3FEF4FE75FECC70159
:100A9000B6010E94F60D87FDF3CF20E030E0A901FA
:100AA000C701B6010E94F60D10E000E087FF0AC002
:100AB0006DE284E093E00E9492018C01F7FAF094D9
:100AC000F7F8F094C0E060E070E080E09FE37C160F
:100AD00041F020E030E040E251E40E94FB0DCF5FA6
:100AE000F6CFA70196010E948A0D2B013C010E94BE
:100AF000740E4B015C014AE00E949E047C01E00EF2
:100B0000F11ECC23C1F1C501B4010E94A30E9B01CB
:100B1000AC01C301B2010E94890D4B015C016EE280
:100B200084E093E00E949201E80EF91EC15018F192
:100B300020E030E040E251E4C501B4010E945A0FC8
:100B40002B013C010E94740E4B01B12CA12C4AE0F8
:100B5000C501B4010E949E04E80EF91EC501B4014E
:100B60000E94A30E9B01AC01C301B2010E94890D3A
:100B70004B015C01DBCFC701CF911F910F91FF901B
:100B8000EF90DF90CF90BF90AF909F908F907F902D
:100B90006F905F904F9008950F931F9390E0FC012A
:100BA000E255FF4F6491FC01E656FF4FE491F0E0FF
:100BB000EE0FFF1FEA57FF4F8591949100E412E476
:100BC0002FE030E0462F0E946A086115710581050B
:100BD000910529F06F5F7F4F8F4F9F4F9F701F913F
:100BE0000F9108951F920F920FB60F9211242F9319
:100BF0003F934F935F936F937F938F939F93AF93A5
:100C0000BF93EF93FF9384E093E00E947001FF9104
:100C1000EF91BF91AF919F918F917F916F915F9174
:100C20004F913F912F910F900FBE0F901F901895ED
:100C30001F920F920FB60F9211242F938F939F93B1
:100C4000EF93FF93E0911403F09115038081E091FD
:100C50001A03F0911B0382FD1BC0908180911D033C
:100C60008F5F8F7320911E03821741F0E0911D0367
:100C7000F0E0EC5FFC4F958F80931D03FF91EF91A7
:100C80009F918F912F910F900FBE0F901F901895ED
:100C90008081F4CF1F920F920FB60F9211242F93E1
:100CA0003F938F939F93AF93BF938091CC0290918A
:100CB000CD02A091CE02B091CF023091CB0223E0C1
:100CC000230F2D3758F50196A11DB11D2093CB029E
:100CD0008093CC029093CD02A093CE02B093CF022A
:100CE0008091D0029091D102A091D202B091D30212
:100CF0000196A11DB11D8093D0029093D102A093C3
:100D0000D202B093D302BF91AF919F918F913F9147
:100D10002F910F900FBE0F901F90189526E8230F6C
:100D20000296A11DB11DD2CF1F920F920FB60F9246
:100D300011242F933F934F935F936F937F938F93E0
:100D40009F93AF93BF93EF93FF93E091D602F091FF
:100D5000D702309749F0A685B7858585968D91FF96
:100D600014C09C918923A1F4FF91EF91BF91AF91A1
:100D70009F918F917F916F915F914F913F912F91B3
:100D80000F900FBE0F901F9018959C91892361F7CB
:100D9000A389B4899C918589809589238C938689C0
:100DA00097890197F1F7608D718DA685B785558577
:100DB00038E020E0CB010197F1F7822F90E0959584
:100DC0008795282F4C91452309F02068315091F7E1
:100DD000868D81FD20958091D50290E001968F73DC
:100DE00099273091D402381799F0A091D502B0E03C
:100DF000A557BD4F2C938093D502828D938D01977B
:100E0000F1F7A389B4898C919589892B8C93ACCF08
:100E1000868D8160868FF1CF1F920F920FB60F9251
:100E200011242F933F934F935F936F937F938F93EF
:100E30009F93AF93BF93CF93DF93EF93FF938091F3
:100E40008A02C091C503D0E087FF24C010928500BC
:100E50001092840080918A028F5F80938A02809131
:100E60008A02082E000C990B8C179D0724F48091A0
:100E70008A028C30C4F180918400909185000496A0
:100E800080349C4908F47AC0809184009091850058
:100E9000049676C080918A02082E000C990B8C175C
:100EA0009D07C4F6E0918A028E2FEE0F990BFC018C
:100EB000EE0FFF1FE80FF91FEF55FC4F808186FFF3
:100EC000C9CFE0918A028E2FEE0F990BFC01EE0F35
:100ED000FF1FE80FF91FEF55FC4F808160E08F7313
:100EE0000E945102B7CF2091840030918500E0919B
:100EF0008A028E2FEE0F990BFC01EE0FFF1FE80FF9
:100F0000F91FEF55FC4F81819281820F931F9093BF
:100F1000890080938800E0918A028E2FEE0F990B52
:100F2000FC01EE0FFF1FE80FF91FEF55FC4F80810A
:100F300086FF11C0E0918A028E2FEE0F990BFC0103
:100F4000EE0FFF1FE80FF91FEF55FC4F808161E0A6
:100F50008F730E945102FF91EF91DF91CF91BF916A
:100F6000AF919F918F917F916F915F914F913F9141
:100F70002F910F900FBE0F901F90189580E49CE961
:100F800090938900809388008FEF80938A02E3CF4B
:100F90001F920F920FB60F9211242F933F934F93EE
:100FA0005F936F937F938F939F93AF93BF93EF93D1
:100FB000FF9381EA8093B2008091EC010E942802A5
:100FC0002091EF013091F0012F5F3F4F3093F001FE
:100FD0002093EF01909189029C3418F095E0909352
:100FE000ED019091ED01933009F44AC0D0F49230B4
:100FF00001F19091EE01992319F0811169C02D9AA8
:10100000FF91EF91BF91AF919F918F917F916F91E0
:101010005F914F913F912F910F900FBE0F901F90B6
:101020001895943009F448C0953019F78111E1CF33
:1010300009C08111DECF2091EF013091F0012436FB
:10104000310528F41092F0011092EF01D2CF1092E6
:101050008902E091890291E09E0F90938902F0E06D
:101060002091EF013091F001EE0FFF1FE451FE4F90
:10107000368325831092F0011092EF0193E019C09E
:10108000813009F0B6CFE091890291E09E0F9093F4
:101090008902F0E02091EF013091F001EE0FFF1F87
:1010A000E451FE4F368325831092F0011092EF0138
:1010B00094E09093ED019DCF882359F22091EF01A8
:1010C0003091F0012536310508F493CF95E0F1CF4A
:1010D0002D9896CFCF92DF92EF92FF920F931F93AE
:1010E000E82FF92F05C0015011092109310961F1DB
:1010F000908196239417B9F305C001501109210975
:10110000310911F1908196239413F7CFC12CD12C82
:10111000E12CF12C0AC08FEFC81AD80AE80AF80AA5
:101120000C151D052E053F0579F080818623841757
:1011300091F36C2D7D2D8E2D9F2D1F910F91FF9082
:10114000EF90DF90CF90089560E070E080E090E055
:101150001F910F91FF90EF90DF90CF900895109224
:1011600007031092060388EE93E0A0E0B0E08093BE
:10117000080390930903A0930A03B0930B0384E040
:1011800091E0909305038093040385EC90E09093A5
:1011900011038093100384EC90E0909313038093E9
:1011A000120380EC90E0909315038093140381EC7C
:1011B00090E0909317038093160382EC90E0909355
:1011C00019038093180386EC90E090931B0380939F
:1011D0001A0310921D0310921E0310921F03109207
:1011E00020038091C5038C3008F07FC091E0980FF8
:1011F0009093C5038093E50390E0FC01EE0FFF1F81
:10120000E80FF91FEF55FC4F88EB9BE09283818339
:101210001092C9031092C80388EE93E0A0E0B0E0FA
:101220008093CA039093CB03A093CC03B093CD03D8
:1012300086E191E09093C7038093C6031092DD038B
:101240001092DC031092DF031092DE031092E10390
:101250001092E0031092E3031092E2036091E40322
:101260006E7F6D7F6093E4036695617081E068270F
:1012700087E00E94510261E087E00E947F02E5EB77
:10128000F0E0E491E093D603E1EAF0E0E491F0E0ED
:10129000EE0FFF1FE057FF4F859194919093D80375
:1012A0008093D70360E084E00E947F028091E40392
:1012B00081FD04C061E084E00E94510284E08093DB
:1012C000D203E2EBF0E0E491E093D303EEE9F0E047
:1012D000E491F0E0EE0FFF1FEA57FF4F85919491E4
:1012E0009093D5038093D40308958FEF8093E50303
:1012F0008FCF789484B5826084BD84B5816084BDCD
:1013000085B5826085BD85B5816085BD80916E00A3
:10131000816080936E0010928100809181008260D4
:101320008093810080918100816080938100809111
:1013300080008160809380008091B1008460809300
:10134000B1008091B00081608093B00080917A00FC
:10135000846080937A0080917A00826080937A0022
:1013600080917A00816080937A0080917A00806811
:1013700080937A001092C10061E088E00E947F02B1
:1013800061E089E00E947F0261E083E00E947F02C9
:1013900061E085E00E947F0261E086E00E947F02BA
:1013A00061E08BE00E947F020E9471040E9485042C
:1013B0000E94B0021092E1031092E0031092DF034A
:1013C0001092DE031092DD031092DC038DE991E0B0
:1013D0009093E3038093E2039091D203963108F057
:1013E00047C02DEB30E03093DD032093DC032BE985
:1013F00031E03093DF032093DE032CE231E03093C1
:10140000E1032093E0032091680084E0983048F0E5
:1014100031E09E3008F430E081E001C0880F3A9559
:10142000EAF7822B809368002DE630E0983050F088
:101430002BE630E09E3030F02CE630E0963110F0B4
:1014400030E020E03093DA032093D903292F30E0F5
:10145000983008F0A1C281E001C0880F9A95EAF7A0
:101460008093DB038091E2039091E3030197F1F70E
:101470008091E0039091E103892B49F1E091D6023C
:10148000F091D70223E0E63CF20709F1309739F0FA
:10149000A389B4899C918589809589238C938091B7
:1014A000E4038E7F8093E4031092D5021092D4025D
:1014B00086EC93E09093D7028093D602E091D90313
:1014C000F091DA0380819091DB03892B808361E0C6
:1014D0008DE00E947F0260E081E10E947F0260E077
:1014E00082E10E947F0260E083E10E947F0260E06F
:1014F0008EE00E947F0261E08FE00E947F02E09117
:101500001403F091150382E08083E0911003F091C1
:1015100011031082E0911203F09113038FEC80838A
:1015200010921C03E0911803F091190386E0808368
:10153000E0911603F0911703808180618083E09130
:101540001603F0911703808188608083E091160371
:10155000F0911703808180688083E0911603F091F9
:10156000170380818F7D808383E391E00E94E204F2
:1015700003E010E043E2E42EF12C58ED652E52E03A
:10158000752ECC24C394D12C30E0832E30E0932EE2
:1015900086EC93E00E942D04181619060CF0DBC0AF
:1015A00086EC93E00E94450490930303809302032A
:1015B00086349105C1F461E08DE00E9451021092E1
:1015C00003031092020380E491E00E94E20484E6A7
:1015D00090E00E948D0484E690E00E9479040E94CD
:1015E00069040E947D048091020390910303833576
:1015F000910561F460E08DE00E94510210920303B6
:10160000109202030E9471040E94850480910203DB
:101610009091030382349105E1F487E491E00E9404
:10162000E20484E690E00E948D0484E690E00E944B
:10163000790460E085E00E94510261E086E00E944A
:10164000510260E089E00E94510261E088E00E945E
:10165000510280910203909103038235910581F438
:101660008DE491E00E94E20486E490E00E948D0403
:1016700084E690E00E9479040E9469040E947D043F
:1016800080910203909103038C34910581F485E5E8
:1016900091E00E94E20484E690E00E948D0486E4DA
:1016A00090E00E9479040E9469040E947D04809168
:1016B0000203909103038835910541F48FE591E091
:1016C0000E94E204D0920103C092000380910203C1
:1016D000909103038837910541F481E791E00E94DE
:1016E000E204109201031092000380910203909192
:1016F00003038635910571F484E891E00E94E204C9
:10170000D092FF02C092FE02D092FD02C092FC0273
:101710000E94B002809102039091030386379105E5
:10172000D1F485E991E00E94E2041092FF02109248
:10173000FE02E091E5038E2F90E0FC01EE0FFF1F0B
:10174000E80FF91FEF55FC4F80818F7B808310924B
:10175000FD021092FC028091000390910103892BFD
:1017600069F181E10E942802EC019093FB028093D1
:10177000FA0282E10E9428025C019093F9028093B0
:10178000F80283E10E942802AA94AB2809F027C13D
:10179000209709F00EC1019709F01AC185E591E083
:1017A0000E94E20484E690E00E948D0486E490E0CA
:1017B0000E9479040E9469040E947D048091FE02C7
:1017C0009091FF02892B09F4DBC08091FC0290917B
:1017D000FD02019721F48AE590E00E948D0060E00F
:1017E0008FE00E945102C8010197F1F761E08FE09C
:1017F0000E945102C7010197F1F760E08FE00E945B
:1018000051028EE00E94CC050E94A30E2AE939E91C
:1018100049EB50E40E94FB0D20E030E040E251E44F
:101820000E94FB0D0E946D0E7093F7026093F6020A
:101830006A3071050CF0A4C07F936F9387EC91E040
:101840009F938F937F926F920E94061088ED92E093
:101850000E94E2040F900F900F900F900F900F9046
:101860008091FC029091FD02019751F485E090E097
:101870000E948D006AEF70E080E090E00E94850396
:1018800060E08FE00E945102C8010197F1F761E02A
:101890008FE00E945102C7010197F1F760E08FE0ED
:1018A0000E9451028EE00E94CC050E94A30E2AE9FC
:1018B00039E949EB50E40E94FB0D1B012C0183ED3B
:1018C00091E00E94910420E030E040E251E4C20146
:1018D000B1010E94FB0D42E00E94F00484E291E01D
:1018E0000E9491046AEF70E080E090E00E9485031E
:1018F0008091FC029091FD02019751F481EB90E000
:101900000E948D006AEF70E080E090E00E94850305
:1019100060E08FE00E945102C8010197F1F761E099
:101920008FE00E945102C7010197F1F760E08FE05C
:101930000E9451028EE00E94CC050E94A30E2AE96B
:1019400039E949EB50E40E94FB0D1B012C018FED9E
:1019500091E00E94910420E030E040E251E4C201B5
:10196000B1010E94FB0D42E00E94F00484E291E08C
:101970000E9491046AEF70E080E090E00E9485038D
:101980008114910409F404CE0E945C01882309F4B7
:10199000FFCD0E940000F8CD9E3040F42850310960
:1019A00081E001C0880F2A95EAF75ACD2E503109FF
:1019B000F7CF892B69F4219759F48DE491E00E94C7
:1019C000E20486E490E00E948D0484E690E0F0CE8C
:1019D00080E491E00E94E20484E690E0F4CFC1301C
:1019E000D10569F4892B89F487EA91E00E94E20429
:1019F00084E690E00E948D0482E390E0D9CE0197C6
:101A000021F488EB91E0CD2BD1F20E9471040E9469
:101A10008504D4CE86E191E09093C7038093C603FA
:101A20008091D6029091D702865C934071F4E09148
:101A3000D903F091DA0390818091DB0380958923AB
:101A400080831092D7021092D6020895052E97FB3C
:101A50001EF400940E943D0D57FD07D00E94580DC2
:101A600007FC03D04EF40C943D0D509540953095F5
:101A700021953F4F4F4F5F4F0895909580957095FA
:101A800061957F4F8F4F9F4F08950E947A0DA59FBC
:101A9000900DB49F900DA49F800D911D1124089569
:101AA000B7FF0C94450D0E94450D821B930B0895C2
:101AB000A1E21A2EAA1BBB1BFD010DC0AA1FBB1F52
:101AC000EE1FFF1FA217B307E407F50720F0A21BC4
:101AD000B30BE40BF50B661F771F881F991F1A9431
:101AE00069F760957095809590959B01AC01BD015B
:101AF000CF010895A29FB001B39FC001A39F700DB5
:101B0000811D1124911DB29F700D811D1124911D05
:101B100008955058BB27AA270E94A10D0C941B0FB3
:101B20000E940D0F38F00E94140F20F039F49F3FEF
:101B300019F426F40C940A0F0EF4E095E7FB0C94CC
:101B4000040FE92F0E942C0F58F3BA17620773078E
:101B50008407950720F079F4A6F50C944E0F0EF447
:101B6000E0950B2EBA2FA02D0B01B90190010C01AD
:101B7000CA01A0011124FF27591B99F0593F50F4C5
:101B8000503E68F11A16F040A22F232F342F44271D
:101B9000585FF3CF469537952795A795F040539515
:101BA000C9F77EF41F16BA0B620B730B840BBAF0E5
:101BB0009150A1F0FF0FBB1F661F771F881FC2F750
:101BC0000EC0BA0F621F731F841F48F48795779564
:101BD0006795B795F7959E3F08F0B0CF9395880F1E
:101BE00008F09927EE0F9795879508950E94E00ECB
:101BF00008F481E008950E940F0E0C941B0F0E94C0
:101C0000140F58F00E940D0F40F029F45F3F29F0A7
:101C10000C94040F51110C944F0F0C940A0F0E9456
:101C20002C0F68F39923B1F3552391F3951B550BB2
:101C3000BB27AA2762177307840738F09F5F5F4F9F
:101C4000220F331F441FAA1FA9F335D00E2E3AF0DE
:101C5000E0E832D091505040E695001CCAF72BD0F6
:101C6000FE2F29D0660F771F881FBB1F2617370747
:101C70004807AB07B0E809F0BB0B802DBF01FF2779
:101C800093585F4F3AF09E3F510578F00C94040F43
:101C90000C944F0F5F3FE4F3983ED4F3869577950D
:101CA0006795B795F7959F5FC9F7880F911D969532
:101CB000879597F90895E1E0660F771F881FBB1F8E
:101CC000621773078407BA0720F0621B730B840B3B
:101CD000BA0BEE1F88F7E09508950E94740E689481
:101CE000B1110C944F0F08950E94340F88F09F5744
:101CF00098F0B92F9927B751B0F0E1F0660F771F30
:101D0000881F991F1AF0BA95C9F714C0B13091F025
:101D10000E944E0FB1E008950C944E0F672F782F5C
:101D20008827B85F39F0B93FCCF3869577956795EA
:101D3000B395D9F73EF490958095709561957F4F56
:101D40008F4F9F4F0895E89409C097FB3EF49095FC
:101D50008095709561957F4F8F4F9F4F9923A9F084
:101D6000F92F96E9BB279395F69587957795679513
:101D7000B795F111F8CFFAF4BB0F11F460FF1BC057
:101D80006F5F7F4F8F4F9F4F16C0882311F096E9EA
:101D900011C0772321F09EE8872F762F05C0662398
:101DA00071F096E8862F70E060E02AF09A95660F51
:101DB000771F881FDAF7880F9695879597F908950A
:101DC000990F0008550FAA0BE0E8FEEF161617064C
:101DD000E807F907C0F012161306E407F50798F0B4
:101DE000621B730B840B950B39F40A2661F0232BCD
:101DF000242B252B21F408950A2609F4A140A69549
:101E00008FEF811D811D089597F99F6780E870E02D
:101E100060E008959FEF80EC089500240A94161660
:101E2000170618060906089500240A9412161306C8
:101E3000140605060895092E0394000C11F4882356
:101E400052F0BB0F40F4BF2B11F460FF04C06F5F72
:101E50007F4F8F4F9F4F089557FD9058440F551F48
:101E600059F05F3F71F04795880F97FB991F61F01C
:101E70009F3F79F087950895121613061406551F93
:101E8000F2CF4695F1DF08C0161617061806991FFF
:101E9000F1CF86957105610508940895E894BB27F4
:101EA00066277727CB0197F908950E94E00E08F482
:101EB0008FEF08950E946D0F0C941B0F0E940D0F61
:101EC00038F00E94140F20F0952311F00C94040FA9
:101ED0000C940A0F11240C944F0F0E942C0F70F3D6
:101EE000959FC1F3950F50E0551F629FF001729FBF
:101EF000BB27F00DB11D639FAA27F00DB11DAA1FCE
:101F0000649F6627B00DA11D661F829F2227B00D1A
:101F1000A11D621F739FB00DA11D621F839FA00DA5
:101F2000611D221F749F3327A00D611D231F849FF5
:101F3000600D211D822F762F6A2F11249F5750404C
:101F40009AF0F1F088234AF0EE0FFF1FBB1F661FC7
:101F5000771F881F91505040A9F79E3F510580F090
:101F60000C94040F0C944F0F5F3FE4F3983ED4F3AE
:101F7000869577956795B795F795E7959F5FC1F734
:101F8000FE2B880F911D9695879597F908950E94CD
:101F9000E00E880B990B0895991B79E004C0991FF6
:101FA000961708F0961B881F7A95C9F780950895B3
:101FB00097FB072E16F4009407D077FD09D00E94F6
:101FC000EC0F07FC05D03EF4909581959F4F089546
:101FD000709561957F4F0895AA1BBB1B51E107C007
:101FE000AA1FBB1FA617B70710F0A61BB70B881FA9
:101FF000991F5A95A9F780959095BC01CD01089538
:10200000EE0FFF1F0590F491E02D0994AEE0B0E0D3
:10201000ECE0F0E10C94B5120D891E8986E08C830A
:102020001A8309838FEF9FE79E838D83AE01475EFE
:102030005F4F6F89788DCE0101960E9429102F8104
:102040003885020F131FF80110822E96E4E00C94DD
:10205000D112ABE0B0E0EFE2F0E10C94A7127C010A
:102060003B018A01FC0117821682838181FFC8C16E
:10207000CE0101965C01F7019381F30193FD8591F7
:1020800093FF81913F01882309F453C1853239F4CC
:1020900093FD859193FF81913F01853229F4B7012A
:1020A00090E00E941912E7CF912C212C312CFFE1F6
:1020B000F31538F08B3211F190F4803209F183324C
:1020C00029F137FC3CC020ED280F2A3050F536FEB0
:1020D00020C08AE0989E200D1124922E06C08D32D9
:1020E00091F0803371F7689430F8F30193FD859196
:1020F00093FF81913F018111DACF21C0689431F8BB
:10210000689432F8F2CF689433F8EFCF689434F8DB
:10211000ECCFEAE02E9E200D1124222E689435F893
:10212000E4CF8E3229F436FC04C1689436F8DDCF52
:102130008C3619F4689437F8D8CF8836B1F2982FD6
:102140009F7D95549330E0F08336A1F18337C1F140
:10215000833509F063C02801F2E04F0E511CF801ED
:10216000C080D180692D70E036FC02C06FEF7FEF38
:10217000C6010E9403124C01689437F882010AC01C
:102180000C5F1F4FFFE3F98388248394912C650132
:10219000E89437F833FE2DC0522C8114910471F568
:1021A000552009F468CFB70180E290E00E9419122F
:1021B0005A94F6CFF801808189830E5F1F4FE4CFD8
:1021C0002801F2E04F0E511CF801C080D180692D2A
:1021D00070E036FC02C06FEF7FEFC6010E940E1266
:1021E0004C018201D5CFB70180E290E00E94191224
:1021F0002A942814190409F0B0F7CECFF60137FC61
:10220000859137FE81916F01B70190E00E9419120C
:1022100051105A94F1E08F1A9108BFCF843619F00B
:10222000893609F077C0F80137FE6BC06081718193
:10223000828193810C5F1F4FF32DFF763F2E97FF16
:1022400009C090958095709561957F4F8F4F9F4FF6
:10225000689437F82AE030E0A5010E944912C82EA0
:10226000CA188C2C432C36FE0CC0E89440F8C914D4
:1022700040F434FE05C032FC03C0F32DFE7E4F2E29
:10228000892C44FE95C0FE01EC0DF11D8081803348
:1022900009F087C0242D297E422E842D8870582E67
:1022A00043FC95C040FE8FC09C2C821418F42C0C6B
:1022B000922C981844FE91C0B70180E390E00E94F0
:1022C000191242FE09C088E790E041FE02C088E58D
:1022D00090E0B7010E941912C91408F48AC0CA9488
:1022E000D12C9FEFC91AD90ACA0CDB1CF6018291C6
:1022F0006F01B70190E00E941912AC14BD04B1F750
:102300004FCF60817181072E000C880B990B0E5FF7
:102310001F4F92CFD32CE894D4F82AE030E08537D1
:1023200039F1232D297FD22E8F3601F148F48835DB
:10233000A9F0F701868197812B96E2E10C94C312F4
:10234000803749F08837A9F7D4FE02C06894D2F8E4
:1023500020E130E00DC06894D4F8F6CF34FE03C01D
:10236000822F8660D82E20E132E002C028E030E0E3
:10237000F801D7FE0FC060817181828193810C5F6B
:102380001F4FA5010E944912C82ECA183D2CE8947F
:1023900037F867CF6081718190E080E00E5F1F4F5A
:1023A000F0CF42FC02C0839478CF8394839475CF9E
:1023B000842D867809F471CFF6CFB70180E290E0E2
:1023C0000E94191283948214C0F3512C73CF522CA3
:1023D0005818821408F46ECFF8CF842D867809F44B
:1023E0007BCF8BE241FE80E247FC8DE2B70190E0BB
:1023F00071CFB70180E390E00E9419129A946CCFDC
:102400008FEF9FEF99CFFC01059061507040011054
:10241000D8F7809590958E0F9F1F0895FC0161500D
:10242000704001900110D8F7809590958E0F9F1FF6
:1024300008950F931F93CF93DF93182F092FEB016C
:102440008B8181FD09C01FEF0FEF812F902FDF914E
:10245000CF911F910F91089582FF14C02E813F816B
:102460008C819D81281739073CF4E881F981CF01DF
:1024700001969983888310838E819F8101969F8323
:102480008E83E3CFE885F985812F0995892BA1F308
:10249000DACFFA01AA27283051F1203181F1E894EE
:1024A0006F936E7F6E5F7F4F8F4F9F4FAF4FB1E047
:1024B0003ED0B4E03CD0670F781F891F9A1FA11D42
:1024C000680F791F8A1F911DA11D6A0F711D811D43
:1024D000911DA11D20D009F468943F912AE0269F08
:1024E00011243019305D3193DEF6CF010895462F67
:1024F0004770405D4193B3E00FD0C9F7F6CF462F48
:102500004F70405D4A3318F0495D31FD40524193B0
:1025100002D0A9F7EACFB4E0A6959795879577956D
:102520006795BA95C9F700976105710508959B01F4
:10253000AC010A2E06945795479537952795BA957D
:10254000C9F7620F731F841F951FA01D08952F9256
:102550003F924F925F926F927F928F929F92AF9233
:10256000BF92CF92DF92EF92FF920F931F93CF9380
:10257000DF93CDB7DEB7CA1BDB0B0FB6F894DEBF17
:102580000FBECDBF09942A88398848885F846E843D
:102590007D848C849B84AA84B984C884DF80EE8087
:1025A000FD800C811B81AA81B981CE0FD11D0FB690
:1025B000F894DEBF0FBECDBFED01089510E0C2E676
:1025C000D0E004C0FE010E9400102196C336D1075E
:0625D000C9F7F894FFCFEB
:1025D600000000009201F2001F01DF0150012E01F0
:1025E600420100000000D103F2006604D0032D046E
:1025F6004504B8030D0A006E616E00696E66006FD1
:10260600766600496E696369616C697A61646F0018
:102616004176616E63650041747261730044657250
:102626006563686100497A71756965726461005411
:102636007261636B696E674361724D6F64654F6E5D
:1026460000547261636B696E674361724D6F6465B6
:102656004F666600556C747261736F6E69634D6F79
:1026660064654F6E00556C747261736F6E69634D6D
:102676006F64654F666600497A7175696572646153
:102686002052617069646100446572656368612007
:1026960052617069646100467370656564643A20CE
:1026A6002564004C2064697374616E63653A005258
:0C26B6002064697374616E63653A000073
:00000001FF
